{
  "contractName": "Voting",
  "abi": [
    {
      "anonymous": false,
      "inputs": [],
      "name": "CreatedProposalEvent",
      "type": "event"
    },
    {
      "anonymous": false,
      "inputs": [],
      "name": "CreatedVoteEvent",
      "type": "event"
    },
    {
      "constant": true,
      "inputs": [
        {
          "internalType": "uint256",
          "name": "",
          "type": "uint256"
        }
      ],
      "name": "proposals",
      "outputs": [
        {
          "internalType": "string",
          "name": "title",
          "type": "string"
        },
        {
          "internalType": "uint256",
          "name": "voteCountPos",
          "type": "uint256"
        },
        {
          "internalType": "uint256",
          "name": "voteCountNeg",
          "type": "uint256"
        },
        {
          "internalType": "uint256",
          "name": "voteCountAbs",
          "type": "uint256"
        }
      ],
      "payable": false,
      "stateMutability": "view",
      "type": "function"
    },
    {
      "constant": true,
      "inputs": [],
      "name": "getNumProposals",
      "outputs": [
        {
          "internalType": "uint256",
          "name": "",
          "type": "uint256"
        }
      ],
      "payable": false,
      "stateMutability": "view",
      "type": "function"
    },
    {
      "constant": true,
      "inputs": [
        {
          "internalType": "uint256",
          "name": "proposalInt",
          "type": "uint256"
        }
      ],
      "name": "getProposal",
      "outputs": [
        {
          "internalType": "uint256",
          "name": "",
          "type": "uint256"
        },
        {
          "internalType": "string",
          "name": "",
          "type": "string"
        },
        {
          "internalType": "uint256",
          "name": "",
          "type": "uint256"
        },
        {
          "internalType": "uint256",
          "name": "",
          "type": "uint256"
        },
        {
          "internalType": "uint256",
          "name": "",
          "type": "uint256"
        },
        {
          "internalType": "address[]",
          "name": "",
          "type": "address[]"
        }
      ],
      "payable": false,
      "stateMutability": "view",
      "type": "function"
    },
    {
      "constant": false,
      "inputs": [
        {
          "internalType": "string",
          "name": "title",
          "type": "string"
        }
      ],
      "name": "addProposal",
      "outputs": [
        {
          "internalType": "bool",
          "name": "",
          "type": "bool"
        }
      ],
      "payable": false,
      "stateMutability": "nonpayable",
      "type": "function"
    },
    {
      "constant": false,
      "inputs": [
        {
          "internalType": "uint256",
          "name": "proposalInt",
          "type": "uint256"
        },
        {
          "internalType": "uint256",
          "name": "voteValue",
          "type": "uint256"
        }
      ],
      "name": "vote",
      "outputs": [
        {
          "internalType": "bool",
          "name": "",
          "type": "bool"
        }
      ],
      "payable": false,
      "stateMutability": "nonpayable",
      "type": "function"
    }
  ],
  "bytecode": "0x608060405234801561001057600080fd5b50610adb806100206000396000f3fe608060405234801561001057600080fd5b50600436106100575760003560e01c8063013cf08b1461005c5780632fdae3c514610118578063798974dd146101eb578063b384abef14610209578063c7f758a814610259575b600080fd5b6100886004803603602081101561007257600080fd5b8101908080359060200190929190505050610364565b6040518080602001858152602001848152602001838152602001828103825286818151815260200191508051906020019080838360005b838110156100da5780820151818401526020810190506100bf565b50505050905090810190601f1680156101075780820380516001836020036101000a031916815260200191505b509550505050505060405180910390f35b6101d16004803603602081101561012e57600080fd5b810190808035906020019064010000000081111561014b57600080fd5b82018360208201111561015d57600080fd5b8035906020019184600183028401116401000000008311171561017f57600080fd5b91908080601f016020809104026020016040519081016040528093929190818152602001838380828437600081840152601f19601f820116905080830192505050505050509192919290505050610439565b604051808215151515815260200191505060405180910390f35b6101f361050b565b6040518082815260200191505060405180910390f35b61023f6004803603604081101561021f57600080fd5b810190808035906020019092919080359060200190929190505050610517565b604051808215151515815260200191505060405180910390f35b6102856004803603602081101561026f57600080fd5b8101908080359060200190929190505050610777565b604051808781526020018060200186815260200185815260200184815260200180602001838103835288818151815260200191508051906020019080838360005b838110156102e15780820151818401526020810190506102c6565b50505050905090810190601f16801561030e5780820380516001836020036101000a031916815260200191505b50838103825284818151815260200191508051906020019060200280838360005b8381101561034a57808201518184015260208101905061032f565b505050509050019850505050505050505060405180910390f35b6000818154811061037157fe5b9060005260206000209060060201600091509050806000018054600181600116156101000203166002900480601f01602080910402602001604051908101604052809291908181526020018280546001816001161561010002031660029004801561041d5780601f106103f25761010080835404028352916020019161041d565b820191906000526020600020905b81548152906001019060200180831161040057829003601f168201915b5050505050908060010154908060020154908060030154905084565b6000610443610905565b7f0616bfbef63fbb3fb188ace13631901ead91828d4bc417e8d62b118462b60ff960405160405180910390a18281600001819052506000819080600181540180825580915050906001820390600052602060002090600602016000909192909190915060008201518160000190805190602001906104c2929190610934565b5060208201518160010155604082015181600201556060820151816003015560808201518160050190805190602001906104fd9291906109b4565b505050506001915050919050565b60008080549050905090565b60008015156000848154811061052957fe5b906000526020600020906006020160040160003373ffffffffffffffffffffffffffffffffffffffff1673ffffffffffffffffffffffffffffffffffffffff16815260200190815260200160002060010160009054906101000a900460ff161515141561076c57600182148061059f5750600282145b806105aa5750600382145b6105b357600080fd5b60008084815481106105c157fe5b9060005260206000209060060201905060018314156105f25760018160010160008282540192505081905550610628565b60028314156106135760018160020160008282540192505081905550610627565b600181600301600082825401925050819055505b5b828160040160003373ffffffffffffffffffffffffffffffffffffffff1673ffffffffffffffffffffffffffffffffffffffff1681526020019081526020016000206000018190555060018160040160003373ffffffffffffffffffffffffffffffffffffffff1673ffffffffffffffffffffffffffffffffffffffff16815260200190815260200160002060010160006101000a81548160ff021916908315150217905550806005013390806001815401808255809150509060018203906000526020600020016000909192909190916101000a81548173ffffffffffffffffffffffffffffffffffffffff021916908373ffffffffffffffffffffffffffffffffffffffff160217905550507fc8d0f117c265f186f11ddd2b492c5183055634fe9b702704eb82c0fe0466364460405160405180910390a16001915050610771565b600090505b92915050565b60006060600080600060606000808054905011156108fb57600080888154811061079d57fe5b90600052602060002090600602019050878160000182600101548360020154846003015485600501848054600181600116156101000203166002900480601f01602080910402602001604051908101604052809291908181526020018280546001816001161561010002031660029004801561085a5780601f1061082f5761010080835404028352916020019161085a565b820191906000526020600020905b81548152906001019060200180831161083d57829003601f168201915b50505050509450808054806020026020016040519081016040528092919081815260200182805480156108e257602002820191906000526020600020905b8160009054906101000a900473ffffffffffffffffffffffffffffffffffffffff1673ffffffffffffffffffffffffffffffffffffffff1681526020019060010190808311610898575b50505050509050965096509650965096509650506108fc565b5b91939550919395565b6040518060a0016040528060608152602001600081526020016000815260200160008152602001606081525090565b828054600181600116156101000203166002900490600052602060002090601f016020900481019282601f1061097557805160ff19168380011785556109a3565b828001600101855582156109a3579182015b828111156109a2578251825591602001919060010190610987565b5b5090506109b09190610a3e565b5090565b828054828255906000526020600020908101928215610a2d579160200282015b82811115610a2c5782518260006101000a81548173ffffffffffffffffffffffffffffffffffffffff021916908373ffffffffffffffffffffffffffffffffffffffff160217905550916020019190600101906109d4565b5b509050610a3a9190610a63565b5090565b610a6091905b80821115610a5c576000816000905550600101610a44565b5090565b90565b610aa391905b80821115610a9f57600081816101000a81549073ffffffffffffffffffffffffffffffffffffffff021916905550600101610a69565b5090565b9056fea265627a7a7231582021a94e292c5bfe5b6d468e32b6c456ea6ac5319abe26377d107ff30bf742e7bd64736f6c63430005100032",
  "source": "// SPDX-License-Identifier: GPL-3.0\npragma solidity >=0.4.21 <0.7.0;\n\ncontract Voting {\n\n    struct Proposal {\n        string title;\n        uint voteCountPos;\n        uint voteCountNeg;\n        uint voteCountAbs;\n        mapping (address => Voter) voters;\n        address[] votersAddress;\n    }\n\n    struct Voter {\n        uint value;\n        bool voted;\n    }\n    \n\n    Proposal[] public proposals;\n\n    event CreatedProposalEvent();\n    event CreatedVoteEvent();\n\n    function getNumProposals() public view returns (uint) {\n        return proposals.length;\n    }\n\n    function getProposal(uint proposalInt) public view returns (uint, string memory, uint, uint, uint, address[] memory) {\n        if (proposals.length > 0) {\n            Proposal storage p = proposals[proposalInt]; // Get the proposal\n            return (proposalInt, p.title, p.voteCountPos, p.voteCountNeg, p.voteCountAbs, p.votersAddress);\n        }\n    }\n\n    function addProposal(string memory title) public returns (bool) {\n        Proposal memory proposal;\n        emit CreatedProposalEvent();\n        proposal.title = title;\n        proposals.push(proposal);\n        return true;\n    }\n\n    function vote(uint proposalInt, uint voteValue) public returns (bool) {\n        if (proposals[proposalInt].voters[msg.sender].voted == false) { // check duplicate key\n            require(voteValue == 1 || voteValue == 2 || voteValue == 3); // check voteValue\n            Proposal storage p = proposals[proposalInt]; // Get the proposal\n            if (voteValue == 1) {\n                p.voteCountPos += 1;\n            } else if (voteValue == 2) {\n                p.voteCountNeg += 1;\n            } else {\n                p.voteCountAbs += 1;\n            }\n            p.voters[msg.sender].value = voteValue;\n            p.voters[msg.sender].voted = true;\n            p.votersAddress.push(msg.sender);\n            emit CreatedVoteEvent();\n            return true;\n        } else {\n            return false;\n        }\n    }\n\n}",
  "sourcePath": "/home/smiir/Downloads/truffle-voting-dapp-master/contracts/Voting.sol",
  "compiler": {
    "name": "solc",
    "version": "0.5.16+commit.9c3226ce.Emscripten.clang"
  },
  "schemaVersion": "3.3.4",
  "updatedAt": "2021-03-16T22:35:47.470Z",
  "networkType": "ethereum",
  "devdoc": {
    "methods": {}
  },
  "userdoc": {
    "methods": {}
  }
}